:1000000012C017C016C015C014C013C012C011C052
:1000100010C00FC00EC00DC00CC00BC00AC009C07C
:1000200008C007C006C011241FBECFEDCDBF02D04F
:100030002DC0E6CF88E787BB80EF8ABB20EF98E72B
:1000400088E02BBB98BB3FE34DE053E0315040408C
:100050005040E1F700C000001BBA18BAEFE3FDE022
:1000600033E0E150F0403040E1F700C0000088BBD1
:10007000EFE4F3EC3197F1F700C0000018BAEFE4B9
:10008000F3EC3197F1F700C00000DBCFF894FFCF1D
:00000001FF
