S01D000042616C616E63696E67427573696E657373436172642E73726563C2
S113000012C02CC02BC02AC029C028C027C026C0BB
S113001025C024C023C022C021C020C01FC01EC0D0
S11300201DC01CC01BC011241FBECFE5D2E0DEBF23
S1130030CDBF11E0A0E6B0E0E4EFFBE002C0059024
S11300400D92A437B107D9F721E0A4E7B1E001C0CC
S11300501D92A837B207E1F7BDD0CAC5D1CF6F92C0
S11300607F928F929F92AF92BF92CF92DF92EF9244
S1130070FF920F931F93CF938C01C62FDC010D9039
S11300800020E9F7CD010197E62EF12CB5E0EB0E47
S1130090F11C801B910BB70157D43C0188D44C014F
S11300A0EE0CFF1C9C01265F3F4FBC01680140E041
S11300B050E00F2EF4E7AF2EF1E0BF2EF02DF80143
S11300C001900020E9F73197E01BF10B4E175F0711
S11300D008F045C0D601ED916D018E2F90E0DC0152
S11300E0AA0FBB1FAA0FBB1FA80FB91FAA0FBB1FC4
S11300F0AA59BF4F909789F405C0CC2349F1F9015F
S113010080E021C0EAE6F1E0DB01819191918D93D9
S11301109D93EA15FB05C9F7F0CF8E2F90E0FC0103
S1130120EE0FFF1FEE0FFF1FE80FF91FEE0FFF1F6B
S1130130E452F240DB01819191918D939D932A17B2
S11301403B07C9F7DACF119211928F5FC813FBCF27
S11301504F5F5F4F2E0D3F1D6E0D7F1DB0CFB3015E
S1130160C401CF911F910F91FF90EF90DF90CF903A
S1130170BF90AF909F908F907F906F900895282F9D
S1130180220F220F220F2BBB282F2072220F28BBF5
S113019048B39C012074332736952795242B28BB1C
S11301A048B39C01207833273695279536952795B3
S11301B036952795242B28BB28B3882791709695CC
S11301C08795929582958F7089279F708927822BB6
S11301D088BB0895CF93DF93CDB7DEB7A5970FB64D
S11301E0F894DEBF0FBECDBF8FEF8ABB80E888BD19
S11301F082E088BD84E083BF80E28DB98AE787BB53
S113020088EF8ABB8DE491E49A83898388E590E042
S11302109C838B8362E0CE01019621DF6E8F7F8FFA
S113022088A399A3CE8CDF8CDD8ECC8E1C8A1D8A8C
S11302301E8A1F8A312C11E040E01D8200E00F2E3F
S1130240FAEF2F2EF02D24E42987812C912C5401D0
S1130250412C512C3201C60188966C01990FEE088D
S1130260FF08C88ED98EEA8EFB8ECC8CDD8C0D2CCB
S1130270000CEE08FF08CAA2DBA2ECA2FDA2642FC8
S11302800FC0DD84DD8209892A88EB88E98661E074
S113029007C0FD84FD8209892A88CB88C98660E06D
S11302A008B601FE09C06894DD24D1F8D8BE2FEF4A
S11302B0421A520A620A720A22B7B62DA52D942D4B
S11302C088276C017D01C20ED11CE11CF11C89B38D
S11302D0827090E0212F30E0220F331F82179307A2
S11302E009F441C0332009F440C0D701C6012C8968
S11302F03D894E895F89821B930BA40BB50B893C06
S11303009105A105B105B8F120E030E040E850E4E2
S11303106D81702F822D998588D220E030E040EAEB
S113032050E405D16D877E878F87988BC701B6010E
S1130330681979098A099B0925E030E040E050E01A
S113034014D3CA01B9018CD12D853E854F855889B6
S11303508AD06D87798B8A8B9B8B31E0132746017A
S11303605701312C11C0312C06C0CC8ADD8AEE8AAB
S1130370FF8A33243394662309F492CF4D814D8749
S1130380098B2A8A59855B8B688D798D8A8D9B8D23
S113039069D19B01AC016D81702F822D9985C7D0E5
S11303A06D837E838F839887C701B60168197909A5
S11303B08A099B0955D16B017C0120E030E040EAB9
S11303C051E46D817E818F8198852FD269877A87E8
S11303D08B879C879B01AC01C701B60122D21816FA
S11303E00CF04FCF1123C9F029853A854B855C85E4
S11303F0C701B60137D02D813E814F81588597D0F2
S11304006CD16B017C016AA17BA18CA19DA12AD135
S1130410A701960127D0F3D00EC029853A854B85D4
S11304205C85C701B6011ED02D813E814F81588560
S11304307ED053D1E4D0CC8CDD8C6C157D050CF0D2
S113044028CF660F771FE8A1F9A1E60FF71F808177
S1130450918195DEDD84DD8209892A88EB88E9862D
S113046061E01ECF5058BB27AA270ED089C17AD18C
S113047030F07FD120F031F49F3F11F41EF46FC1AE
S11304800EF4E095E7FB3CC1E92F8BD180F3BA175A
S1130490620773078407950718F071F49EF5BAC1D3
S11304A00EF4E0950B2EBA2FA02D0B01B90190018B
S11304B00C01CA01A0011124FF27591B99F0593FCF
S11304C050F4503E68F11A16F040A22F232F342F17
S11304D04427585FF3CF469537952795A795F04065
S11304E05395C9F77EF41F16BA0B620B730B840B7A
S11304F0BAF09150A1F0FF0FBB1F661F771F881F32
S1130500C2F70EC0BA0F621F731F841F48F4879589
S113051077956795B795F7959E3F08F0B3CF939578
S1130520880F08F09927EE0F9795879508950CD0BA
S113053027C11FD140F016D130F021F45F3F19F0EC
S1130540DFC0511168C10BC12CD198F39923C9F3B1
S11305505523B1F3951B550BBB27AA2762177307C5
S1130560840738F09F5F5F4F220F331F441FAA1F79
S1130570A9F333D00E2E3AF0E0E830D09150504039
S1130580E695001CCAF729D0FE2F27D0660F771FE7
S1130590881FBB1F261737074807AB07B0E809F0C9
S11305A0BB0B802DBF01FF2793585F4F2AF09E3F5E
S11305B0510568F0A5C02FC15F3FECF3983EDCF312
S11305C0869577956795B795F7959F5FC9F7880FD7
S11305D0911D9695879597F90895E1E0660F771F29
S11305E0881FBB1F621773078407BA0720F0621BBA
S11305F0730B840BBA0BEE1F88F7E095089504D0B3
S11306006894B11108C10895D4D088F09F5790F030
S1130610B92F9927B751A0F0D1F0660F771F881F23
S1130620991F1AF0BA95C9F712C0B13081F0F2D00F
S1130630B1E00895EFC0672F782F8827B85F39F0AD
S1130640B93FCCF3869577956795B395D9F73EF482
S113065090958095709561957F4F8F4F9F4F08952A
S1130660E89409C097FB3EF4909580957095619548
S11306707F4F8F4F9F4F9923A9F0F92F96E9BB27FE
S11306809395F695879577956795B795F111F8CF7A
S1130690FAF4BB0F11F460FF1BC06F5F7F4F8F4FE5
S11306A09F4F16C0882311F096E911C0772321F0DB
S11306B09EE8872F762F05C0662371F096E8862F73
S11306C070E060E02AF09A95660F771F881FDAF7CA
S11306D0880F9695879597F9089585D080F09F3770
S11306E040F491110EF097C060E070E080E89FEB59
S11306F0089526F41B16611D711D811D07C021C0BC
S113070097F99F6780E870E060E00895882371F4AA
S1130710772321F09850872B762F07C0662311F496
S113072099270DC09051862B70E060E02AF09A95CD
S1130730660F771F881FDAF7880F9695879597F9C4
S113074008959F3F31F0915020F4879577956795F0
S1130750B795880F911D9695879597F908959FEF02
S113076080EC089500240A94161617061806090644
S1130770089500240A941216130614060506089513
S1130780092E0394000C11F4882352F0BB0F40F49B
S1130790BF2B11F460FF04C06F5F7F4F8F4F9F4FDB
S11307A0089557FD9058440F551F59F05F3F71F05D
S11307B04795880F97FB991F61F09F3F79F08795C4
S11307C00895121613061406551FF2CF4695F1DF4D
S11307D008C0161617061806991FF1CF86957105DD
S11307E0610508940895E5DFA0F0BEE7B91788F421
S11307F0BB279F3860F41616B11D672F782F882702
S1130800985FF7CF869577956795B11D939596393F
S1130810C8F30895E894BB2766277727CB0197F997
S113082008956ED008F48FEF08950AD0A9CF9ADF07
S113083028F09FDF18F0952309F062CF90CFEBCF1B
S1130840B0DFA8F39923D9F35523C9F3950F50E0EA
S1130850551FAA27EE27FF27BB2700240894679576
S113086020F4E20FF31FB41F0A1E220F331F441F8C
S1130870AA1F6695A9F7779530F4F30FB41F0A1EE3
S1130880121E08F46395330F441FAA1F221F769586
S113089099F7879520F4B40F0A1E121E631F440FA4
S11308A0AA1F221F331F8695A9F7862F712D602D4D
S11308B011249F5750408AF0E1F088234AF0EE0F4C
S11308C0FF1FBB1F661F771F881F91505040A9F759
S11308D09E3F510570F014CF9ECF5F3FECF3983EDE
S11308E0DCF3869577956795B795F795E7959F5FC0
S11308F0C1F7FE2B880F911D9695879597F908955A
S1130900990F0008550FAA0BE0E8FEEF161617061C
S1130910E807F907C0F012161306E407F50798F084
S1130920621B730B840B950B39F40A2661F0232B9D
S1130930242B252B21F408950A2609F4A140A69519
S11309408FEF811D811D08950024552704C0080ED2
S1130950591F880F991F009729F076956795B8F36A
S11309607105B9F7802D952F0895A1E21A2EAA1BBF
S1130970BB1BFD010DC0AA1FBB1FEE1FFF1FA2174B
S1130980B307E407F50720F0A21BB30BE40BF50B48
S1130990661F771F881F991F1A9469F760957095D1
S11309A0809590959B01AC01BD01CF0108950F93F3
S11309B01F93CF93DF938230910510F482E090E08F
S11309C0E0917601F091770120E030E0A0E0B0E022
S11309D0309719F1408151810281138148175907D9
S11309E0C8F08417950769F4109731F012960C93A8
S11309F0129713961C9327C00093760110937701E6
S1130A0022C02115310519F04217530718F49A0131
S1130A10BD01EF01DF01F801DBCF21153105F9F04C
S1130A20281B390B2430310580F48A819B816115A0
S1130A30710521F0FB019383828304C090937701B5
S1130A4080937601FE01329644C0FE01E20FF31F4B
S1130A508193919322503109398328833AC020919C
S1130A60740130917501232B41F42091620030917F
S1130A7063003093750120937401209160003091DC
S1130A8061002115310541F42DB73EB74091640052
S1130A9050916500241B350BE0917401F0917501B0
S1130AA0E217F307A0F42E1B3F0B2817390778F041
S1130AB0AC014E5F5F4F2417350748F04E0F5F1FA0
S1130AC050937501409374018193919302C0E0E0C7
S1130AD0F0E0CF01DF91CF911F910F910895CF9353
S1130AE0DF93009709F481C0FC01329713821282CC
S1130AF0A0917601B0917701109781F42081318122
S1130B00820F931F209174013091750128173907C2
S1130B1051F5F0937501E093740167C0ED0120E095
S1130B2030E0CE17DF0740F44A815B819E01411516
S1130B305105F1F0EA01F5CFD383C283408151819D
S1130B40840F951FC817D90759F488819981840F98
S1130B50951F0296918380838A819B8193838283EC
S1130B602115310529F4F0937701E09376013DC016
S1130B70E901FB83EA8349915991C40FD51FEC170E
S1130B80FD0761F480819181840F951F0296E9012C
S1130B9099838883828193819B838A83E0E0F0E058
S1130BA012968D919C911397009719F0FD01DC0129
S1130BB0F7CF8D919C9111979D012E5F3F4F820F2E
S1130BC0931F20917401309175012817390769F436
S1130BD0309729F4109277011092760102C01382A3
S1130BE01282B0937501A0937401DF91CF9108959F
S1070BF0F894FFCFA3
S1130BF4000078012000FF01110011001100FF0121
S1130C04FF01110111011101EE00FF0101010101B4
S1130C1401010101FF01010101018301FE00FF0142
S1130C241101110111011101FF0111001100110041
S1130C341100FF01010131011101F101FF01100053
S1130C4410001000FF0101010101FF010101010174
S1130C54C1010101FF0101000100FF01100028008E
S1130C6444008301FF010001000100018001FF0130
S1130C740E0038000E00FF01FF010E003800E000F2
S1130C84FF01FF01010101010101FF01FF01110045
S1130C94110011001F00FF008100C100FF000001CA
S1130CA4FF011100310051009F011F0111011101C5
S1130CB41101F10101000100FF0101000100FF0124
S1130CC4000100010001FF011F007800C001780049
S1130CD41F00FF00C001FF00C001FF0083016C007E
S1130CE410006C00830103000C00F0010C000300ED
S1130CF481016D0111010D010301000000000000D8
S1070D0400000000E7
S9030000FC
